:020000001628C0
:0E0006008312031323088A00220882000800D8
:1000140003208A110A128000840AA20A0319A30A7F
:08002400F003031D0A28080087
:10002C00FF3083120313A000A10183168601FF3059
:10003C0083128600200886000230FB008630FC000C
:10004C009930FD00FD0B2828FC0B2828FB0B2828D9
:10005C002008F1002108F200F10DF20D7110710869
:10006C00A0007208A10000307206031D3F2800306A
:10007C007106031D4428FF30A000A101202845284B
:02400E00782117
:00000001FF
